{
  "_format": "hh-sol-artifact-1",
  "contractName": "Staking",
  "sourceName": "contracts/stakingPoolReal_1.sol",
  "abi": [
    {
      "anonymous": false,
      "inputs": [
        {
          "indexed": true,
          "internalType": "address",
          "name": "previousOwner",
          "type": "address"
        },
        {
          "indexed": true,
          "internalType": "address",
          "name": "newOwner",
          "type": "address"
        }
      ],
      "name": "OwnershipTransferred",
      "type": "event"
    },
    {
      "inputs": [
        {
          "internalType": "contract IERC20",
          "name": "_depositToken",
          "type": "address"
        },
        {
          "internalType": "contract IERC20",
          "name": "_rewardToken",
          "type": "address"
        },
        {
          "internalType": "uint256",
          "name": "_apy",
          "type": "uint256"
        },
        {
          "internalType": "uint256",
          "name": "_lockDays",
          "type": "uint256"
        }
      ],
      "name": "add",
      "outputs": [],
      "stateMutability": "nonpayable",
      "type": "function"
    },
    {
      "inputs": [
        {
          "internalType": "uint256",
          "name": "_pid",
          "type": "uint256"
        },
        {
          "internalType": "uint256",
          "name": "_amount",
          "type": "uint256"
        }
      ],
      "name": "deposit",
      "outputs": [],
      "stateMutability": "nonpayable",
      "type": "function"
    },
    {
      "inputs": [
        {
          "internalType": "address",
          "name": "",
          "type": "address"
        }
      ],
      "name": "depositedTokens",
      "outputs": [
        {
          "internalType": "uint256",
          "name": "",
          "type": "uint256"
        }
      ],
      "stateMutability": "view",
      "type": "function"
    },
    {
      "inputs": [
        {
          "internalType": "uint256",
          "name": "_pid",
          "type": "uint256"
        },
        {
          "internalType": "uint256",
          "name": "_apy",
          "type": "uint256"
        }
      ],
      "name": "modifyPool",
      "outputs": [],
      "stateMutability": "nonpayable",
      "type": "function"
    },
    {
      "inputs": [],
      "name": "owner",
      "outputs": [
        {
          "internalType": "address",
          "name": "",
          "type": "address"
        }
      ],
      "stateMutability": "view",
      "type": "function"
    },
    {
      "inputs": [
        {
          "internalType": "uint256",
          "name": "_pid",
          "type": "uint256"
        },
        {
          "internalType": "address",
          "name": "_user",
          "type": "address"
        }
      ],
      "name": "pendingReward",
      "outputs": [
        {
          "internalType": "uint256",
          "name": "",
          "type": "uint256"
        }
      ],
      "stateMutability": "view",
      "type": "function"
    },
    {
      "inputs": [],
      "name": "poolCount",
      "outputs": [
        {
          "internalType": "uint256",
          "name": "",
          "type": "uint256"
        }
      ],
      "stateMutability": "view",
      "type": "function"
    },
    {
      "inputs": [
        {
          "internalType": "uint256",
          "name": "",
          "type": "uint256"
        }
      ],
      "name": "poolInfo",
      "outputs": [
        {
          "internalType": "contract IERC20",
          "name": "depositToken",
          "type": "address"
        },
        {
          "internalType": "contract IERC20",
          "name": "rewardToken",
          "type": "address"
        },
        {
          "internalType": "uint256",
          "name": "depositedAmount",
          "type": "uint256"
        },
        {
          "internalType": "uint256",
          "name": "apy",
          "type": "uint256"
        },
        {
          "internalType": "uint256",
          "name": "lockDays",
          "type": "uint256"
        }
      ],
      "stateMutability": "view",
      "type": "function"
    },
    {
      "inputs": [],
      "name": "renounceOwnership",
      "outputs": [],
      "stateMutability": "nonpayable",
      "type": "function"
    },
    {
      "inputs": [
        {
          "internalType": "address",
          "name": "token",
          "type": "address"
        },
        {
          "internalType": "uint256",
          "name": "amount",
          "type": "uint256"
        }
      ],
      "name": "sweep",
      "outputs": [],
      "stateMutability": "nonpayable",
      "type": "function"
    },
    {
      "inputs": [
        {
          "internalType": "address",
          "name": "newOwner",
          "type": "address"
        }
      ],
      "name": "transferOwnership",
      "outputs": [],
      "stateMutability": "nonpayable",
      "type": "function"
    },
    {
      "inputs": [
        {
          "internalType": "uint256",
          "name": "_pid",
          "type": "uint256"
        },
        {
          "internalType": "address",
          "name": "_user",
          "type": "address"
        }
      ],
      "name": "userDetail",
      "outputs": [
        {
          "components": [
            {
              "internalType": "uint256",
              "name": "amount",
              "type": "uint256"
            },
            {
              "internalType": "uint256",
              "name": "lastRewardAt",
              "type": "uint256"
            },
            {
              "internalType": "uint256",
              "name": "lockUntil",
              "type": "uint256"
            }
          ],
          "internalType": "struct Staking.UserInfo",
          "name": "",
          "type": "tuple"
        }
      ],
      "stateMutability": "view",
      "type": "function"
    },
    {
      "inputs": [
        {
          "internalType": "uint256",
          "name": "",
          "type": "uint256"
        },
        {
          "internalType": "address",
          "name": "",
          "type": "address"
        }
      ],
      "name": "userInfo",
      "outputs": [
        {
          "internalType": "uint256",
          "name": "amount",
          "type": "uint256"
        },
        {
          "internalType": "uint256",
          "name": "lastRewardAt",
          "type": "uint256"
        },
        {
          "internalType": "uint256",
          "name": "lockUntil",
          "type": "uint256"
        }
      ],
      "stateMutability": "view",
      "type": "function"
    },
    {
      "inputs": [
        {
          "internalType": "uint256",
          "name": "_pid",
          "type": "uint256"
        },
        {
          "internalType": "uint256",
          "name": "_amount",
          "type": "uint256"
        }
      ],
      "name": "withdraw",
      "outputs": [],
      "stateMutability": "nonpayable",
      "type": "function"
    }
  ],
  "bytecode": "0x6080604052670de0b6b3a764000060025534801561001c57600080fd5b5061003961002e61004560201b60201c565b61004d60201b60201c565b60018081905550610111565b600033905090565b60008060009054906101000a900473ffffffffffffffffffffffffffffffffffffffff169050816000806101000a81548173ffffffffffffffffffffffffffffffffffffffff021916908373ffffffffffffffffffffffffffffffffffffffff1602179055508173ffffffffffffffffffffffffffffffffffffffff168173ffffffffffffffffffffffffffffffffffffffff167f8be0079c531659141344cd1fd0a4f28419497f9722a3daafe3b4186f6b6457e060405160405180910390a35050565b6121e480620001216000396000f3fe608060405234801561001057600080fd5b50600436106100ea5760003560e01c806393f1a40b1161008c578063d84197b611610066578063d84197b61461024d578063e2bbb1581461027d578063f2fde38b14610299578063f525cb68146102b5576100ea565b806393f1a40b146101bb57806398969e82146101ed578063c326bf4f1461021d576100ea565b80634efd1551116100c85780634efd15511461015b5780636ea056a914610177578063715018a6146101935780638da5cb5b1461019d576100ea565b80631526fe27146100ef57806339739b9914610123578063441a3e701461013f575b600080fd5b610109600480360381019061010491906116af565b6102d3565b60405161011a959493929190611a74565b60405180910390f35b61013d6004803603810190610138919061173d565b610359565b005b6101596004803603810190610154919061173d565b6103bb565b005b6101756004803603810190610170919061164c565b610791565b005b610191600480360381019061018c91906115e7565b6108cc565b005b61019b610a61565b005b6101a5610a75565b6040516101b291906119f9565b60405180910390f35b6101d560048036038101906101d09190611701565b610a9e565b6040516101e493929190611c7f565b60405180910390f35b61020760048036038101906102029190611701565b610ad5565b6040516102149190611c64565b60405180910390f35b610237600480360381019061023291906115be565b610b3d565b6040516102449190611c64565b60405180910390f35b61026760048036038101906102629190611701565b610b55565b6040516102749190611c49565b60405180910390f35b6102976004803603810190610292919061173d565b610be4565b005b6102b360048036038101906102ae91906115be565b610f91565b005b6102bd611015565b6040516102ca9190611c64565b60405180910390f35b600381815481106102e357600080fd5b90600052602060002090600502016000915090508060000160009054906101000a900473ffffffffffffffffffffffffffffffffffffffff16908060010160009054906101000a900473ffffffffffffffffffffffffffffffffffffffff16908060020154908060030154908060040154905085565b610361611022565b60006003838154811061039d577f4e487b7100000000000000000000000000000000000000000000000000000000600052603260045260246000fd5b90600052602060002090600502019050818160030181905550505050565b60026001541415610401576040517f08c379a00000000000000000000000000000000000000000000000000000000081526004016103f890611c29565b60405180910390fd5b6002600181905550600060038381548110610445577f4e487b7100000000000000000000000000000000000000000000000000000000600052603260045260246000fd5b9060005260206000209060050201905060006005600085815260200190815260200160002060003373ffffffffffffffffffffffffffffffffffffffff1673ffffffffffffffffffffffffffffffffffffffff168152602001908152602001600020905082816000015410156104f0576040517f08c379a00000000000000000000000000000000000000000000000000000000081526004016104e790611b69565b60405180910390fd5b4281600201541115610537576040517f08c379a000000000000000000000000000000000000000000000000000000000815260040161052e90611be9565b60405180910390fd5b600061054382866110a0565b90506000811115610601578260010160009054906101000a900473ffffffffffffffffffffffffffffffffffffffff1673ffffffffffffffffffffffffffffffffffffffff1663a9059cbb33836040518363ffffffff1660e01b81526004016105ad929190611a4b565b602060405180830381600087803b1580156105c757600080fd5b505af11580156105db573d6000803e3d6000fd5b505050506040513d601f19601f820116820180604052508101906105ff9190611623565b505b600084111561077a578382600001600082825461061e9190611dc9565b92505081905550838360020160008282546106399190611dc9565b9250508190555083600460008560000160009054906101000a900473ffffffffffffffffffffffffffffffffffffffff1673ffffffffffffffffffffffffffffffffffffffff1673ffffffffffffffffffffffffffffffffffffffff16815260200190815260200160002060008282546106b39190611dc9565b925050819055508260000160009054906101000a900473ffffffffffffffffffffffffffffffffffffffff1673ffffffffffffffffffffffffffffffffffffffff1663a9059cbb33600254876107099190611d6f565b6040518363ffffffff1660e01b8152600401610726929190611a4b565b602060405180830381600087803b15801561074057600080fd5b505af1158015610754573d6000803e3d6000fd5b505050506040513d601f19601f820116820180604052508101906107789190611623565b505b428260010181905550505050600180819055505050565b610799611022565b60036040518060a001604052808673ffffffffffffffffffffffffffffffffffffffff1681526020018573ffffffffffffffffffffffffffffffffffffffff1681526020016000815260200184815260200183815250908060018154018082558091505060019003906000526020600020906005020160009091909190915060008201518160000160006101000a81548173ffffffffffffffffffffffffffffffffffffffff021916908373ffffffffffffffffffffffffffffffffffffffff16021790555060208201518160010160006101000a81548173ffffffffffffffffffffffffffffffffffffffff021916908373ffffffffffffffffffffffffffffffffffffffff160217905550604082015181600201556060820151816003015560808201518160040155505050505050565b6108d4611022565b60008273ffffffffffffffffffffffffffffffffffffffff166370a08231306040518263ffffffff1660e01b815260040161090f91906119f9565b60206040518083038186803b15801561092757600080fd5b505afa15801561093b573d6000803e3d6000fd5b505050506040513d601f19601f8201168201806040525081019061095f91906116d8565b9050808211156109a4576040517f08c379a000000000000000000000000000000000000000000000000000000000815260040161099b90611ae9565b60405180910390fd5b600460008473ffffffffffffffffffffffffffffffffffffffff1673ffffffffffffffffffffffffffffffffffffffff1681526020019081526020016000205482826109f09190611dc9565b1015610a31576040517f08c379a0000000000000000000000000000000000000000000000000000000008152600401610a2890611b49565b60405180910390fd5b610a5c33838573ffffffffffffffffffffffffffffffffffffffff166111659092919063ffffffff16565b505050565b610a69611022565b610a7360006111eb565b565b60008060009054906101000a900473ffffffffffffffffffffffffffffffffffffffff16905090565b6005602052816000526040600020602052806000526040600020600091509150508060000154908060010154908060020154905083565b6000806005600085815260200190815260200160002060008473ffffffffffffffffffffffffffffffffffffffff1673ffffffffffffffffffffffffffffffffffffffff1681526020019081526020016000209050610b3481856110a0565b91505092915050565b60046020528060005260406000206000915090505481565b610b5d611534565b60006005600085815260200190815260200160002060008473ffffffffffffffffffffffffffffffffffffffff1673ffffffffffffffffffffffffffffffffffffffff168152602001908152602001600020604051806060016040529081600082015481526020016001820154815260200160028201548152505090508091505092915050565b60026001541415610c2a576040517f08c379a0000000000000000000000000000000000000000000000000000000008152600401610c2190611c29565b60405180910390fd5b600260018190555060008111610c75576040517f08c379a0000000000000000000000000000000000000000000000000000000008152600401610c6c90611b09565b60405180910390fd5b600060038381548110610cb1577f4e487b7100000000000000000000000000000000000000000000000000000000600052603260045260246000fd5b9060005260206000209060050201905060006005600085815260200190815260200160002060003373ffffffffffffffffffffffffffffffffffffffff1673ffffffffffffffffffffffffffffffffffffffff1681526020019081526020016000209050600081600001541115610de4576000610d2e82866110a0565b90508260010160009054906101000a900473ffffffffffffffffffffffffffffffffffffffff1673ffffffffffffffffffffffffffffffffffffffff1663a9059cbb33836040518363ffffffff1660e01b8152600401610d8f929190611a4b565b602060405180830381600087803b158015610da957600080fd5b505af1158015610dbd573d6000803e3d6000fd5b505050506040513d601f19601f82011682018060405250810190610de19190611623565b50505b8160000160009054906101000a900473ffffffffffffffffffffffffffffffffffffffff1673ffffffffffffffffffffffffffffffffffffffff166323b872dd333060025487610e349190611d6f565b6040518463ffffffff1660e01b8152600401610e5293929190611a14565b602060405180830381600087803b158015610e6c57600080fd5b505af1158015610e80573d6000803e3d6000fd5b505050506040513d601f19601f82011682018060405250810190610ea49190611623565b5082826002016000828254610eb99190611ce8565b9250508190555082816000016000828254610ed49190611ce8565b92505081905550428160010181905550620151808260040154610ef79190611d6f565b42610f029190611ce8565b816002018190555082600460008460000160009054906101000a900473ffffffffffffffffffffffffffffffffffffffff1673ffffffffffffffffffffffffffffffffffffffff1673ffffffffffffffffffffffffffffffffffffffff1681526020019081526020016000206000828254610f7d9190611ce8565b925050819055505050600180819055505050565b610f99611022565b600073ffffffffffffffffffffffffffffffffffffffff168173ffffffffffffffffffffffffffffffffffffffff161415611009576040517f08c379a000000000000000000000000000000000000000000000000000000000815260040161100090611b29565b60405180910390fd5b611012816111eb565b50565b6000600380549050905090565b61102a6112af565b73ffffffffffffffffffffffffffffffffffffffff16611048610a75565b73ffffffffffffffffffffffffffffffffffffffff161461109e576040517f08c379a000000000000000000000000000000000000000000000000000000000815260040161109590611ba9565b60405180910390fd5b565b600080600383815481106110dd577f4e487b7100000000000000000000000000000000000000000000000000000000600052603260045260246000fd5b906000526020600020906005020190506000620151808560010154426111039190611dc9565b61110d9190611d3e565b9050816004015481111561112357816004015490505b8160030154606461016d83886000015461113d9190611d6f565b6111479190611d3e565b6111519190611d3e565b61115b9190611d6f565b9250505092915050565b6111e68363a9059cbb60e01b8484604051602401611184929190611a4b565b604051602081830303815290604052907bffffffffffffffffffffffffffffffffffffffffffffffffffffffff19166020820180517bffffffffffffffffffffffffffffffffffffffffffffffffffffffff83818316178352505050506112b7565b505050565b60008060009054906101000a900473ffffffffffffffffffffffffffffffffffffffff169050816000806101000a81548173ffffffffffffffffffffffffffffffffffffffff021916908373ffffffffffffffffffffffffffffffffffffffff1602179055508173ffffffffffffffffffffffffffffffffffffffff168173ffffffffffffffffffffffffffffffffffffffff167f8be0079c531659141344cd1fd0a4f28419497f9722a3daafe3b4186f6b6457e060405160405180910390a35050565b600033905090565b6000611319826040518060400160405280602081526020017f5361666545524332303a206c6f772d6c6576656c2063616c6c206661696c65648152508573ffffffffffffffffffffffffffffffffffffffff1661137e9092919063ffffffff16565b905060008151111561137957808060200190518101906113399190611623565b611378576040517f08c379a000000000000000000000000000000000000000000000000000000000815260040161136f90611c09565b60405180910390fd5b5b505050565b606061138d8484600085611396565b90509392505050565b6060824710156113db576040517f08c379a00000000000000000000000000000000000000000000000000000000081526004016113d290611b89565b60405180910390fd5b6113e4856114aa565b611423576040517f08c379a000000000000000000000000000000000000000000000000000000000815260040161141a90611bc9565b60405180910390fd5b6000808673ffffffffffffffffffffffffffffffffffffffff16858760405161144c91906119e2565b60006040518083038185875af1925050503d8060008114611489576040519150601f19603f3d011682016040523d82523d6000602084013e61148e565b606091505b509150915061149e8282866114cd565b92505050949350505050565b6000808273ffffffffffffffffffffffffffffffffffffffff163b119050919050565b606083156114dd5782905061152d565b6000835111156114f05782518084602001fd5b816040517f08c379a00000000000000000000000000000000000000000000000000000000081526004016115249190611ac7565b60405180910390fd5b9392505050565b60405180606001604052806000815260200160008152602001600081525090565b60008135905061156481612152565b92915050565b60008151905061157981612169565b92915050565b60008135905061158e81612180565b92915050565b6000813590506115a381612197565b92915050565b6000815190506115b881612197565b92915050565b6000602082840312156115d057600080fd5b60006115de84828501611555565b91505092915050565b600080604083850312156115fa57600080fd5b600061160885828601611555565b925050602061161985828601611594565b9150509250929050565b60006020828403121561163557600080fd5b60006116438482850161156a565b91505092915050565b6000806000806080858703121561166257600080fd5b60006116708782880161157f565b94505060206116818782880161157f565b935050604061169287828801611594565b92505060606116a387828801611594565b91505092959194509250565b6000602082840312156116c157600080fd5b60006116cf84828501611594565b91505092915050565b6000602082840312156116ea57600080fd5b60006116f8848285016115a9565b91505092915050565b6000806040838503121561171457600080fd5b600061172285828601611594565b925050602061173385828601611555565b9150509250929050565b6000806040838503121561175057600080fd5b600061175e85828601611594565b925050602061176f85828601611594565b9150509250929050565b61178281611dfd565b82525050565b600061179382611cb6565b61179d8185611ccc565b93506117ad818560208601611e7b565b80840191505092915050565b6117c281611e57565b82525050565b60006117d382611cc1565b6117dd8185611cd7565b93506117ed818560208601611e7b565b6117f681611f0c565b840191505092915050565b600061180e601683611cd7565b915061181982611f1d565b602082019050919050565b6000611831602083611cd7565b915061183c82611f46565b602082019050919050565b6000611854602683611cd7565b915061185f82611f6f565b604082019050919050565b6000611877601e83611cd7565b915061188282611fbe565b602082019050919050565b600061189a601f83611cd7565b91506118a582611fe7565b602082019050919050565b60006118bd602683611cd7565b91506118c882612010565b604082019050919050565b60006118e0602083611cd7565b91506118eb8261205f565b602082019050919050565b6000611903601d83611cd7565b915061190e82612088565b602082019050919050565b6000611926600e83611cd7565b9150611931826120b1565b602082019050919050565b6000611949602a83611cd7565b9150611954826120da565b604082019050919050565b600061196c601f83611cd7565b915061197782612129565b602082019050919050565b60608201600082015161199860008501826119c4565b5060208201516119ab60208501826119c4565b5060408201516119be60408501826119c4565b50505050565b6119cd81611e4d565b82525050565b6119dc81611e4d565b82525050565b60006119ee8284611788565b915081905092915050565b6000602082019050611a0e6000830184611779565b92915050565b6000606082019050611a296000830186611779565b611a366020830185611779565b611a4360408301846119d3565b949350505050565b6000604082019050611a606000830185611779565b611a6d60208301846119d3565b9392505050565b600060a082019050611a8960008301886117b9565b611a9660208301876117b9565b611aa360408301866119d3565b611ab060608301856119d3565b611abd60808301846119d3565b9695505050505050565b60006020820190508181036000830152611ae181846117c8565b905092915050565b60006020820190508181036000830152611b0281611801565b9050919050565b60006020820190508181036000830152611b2281611824565b9050919050565b60006020820190508181036000830152611b4281611847565b9050919050565b60006020820190508181036000830152611b628161186a565b9050919050565b60006020820190508181036000830152611b828161188d565b9050919050565b60006020820190508181036000830152611ba2816118b0565b9050919050565b60006020820190508181036000830152611bc2816118d3565b9050919050565b60006020820190508181036000830152611be2816118f6565b9050919050565b60006020820190508181036000830152611c0281611919565b9050919050565b60006020820190508181036000830152611c228161193c565b9050919050565b60006020820190508181036000830152611c428161195f565b9050919050565b6000606082019050611c5e6000830184611982565b92915050565b6000602082019050611c7960008301846119d3565b92915050565b6000606082019050611c9460008301866119d3565b611ca160208301856119d3565b611cae60408301846119d3565b949350505050565b600081519050919050565b600081519050919050565b600081905092915050565b600082825260208201905092915050565b6000611cf382611e4d565b9150611cfe83611e4d565b9250827fffffffffffffffffffffffffffffffffffffffffffffffffffffffffffffffff03821115611d3357611d32611eae565b5b828201905092915050565b6000611d4982611e4d565b9150611d5483611e4d565b925082611d6457611d63611edd565b5b828204905092915050565b6000611d7a82611e4d565b9150611d8583611e4d565b9250817fffffffffffffffffffffffffffffffffffffffffffffffffffffffffffffffff0483118215151615611dbe57611dbd611eae565b5b828202905092915050565b6000611dd482611e4d565b9150611ddf83611e4d565b925082821015611df257611df1611eae565b5b828203905092915050565b6000611e0882611e2d565b9050919050565b60008115159050919050565b6000611e2682611dfd565b9050919050565b600073ffffffffffffffffffffffffffffffffffffffff82169050919050565b6000819050919050565b6000611e6282611e69565b9050919050565b6000611e7482611e2d565b9050919050565b60005b83811015611e99578082015181840152602081019050611e7e565b83811115611ea8576000848401525b50505050565b7f4e487b7100000000000000000000000000000000000000000000000000000000600052601160045260246000fd5b7f4e487b7100000000000000000000000000000000000000000000000000000000600052601260045260246000fd5b6000601f19601f8301169050919050565b7f416d6f756e7420657863656564732062616c616e636500000000000000000000600082015250565b7f416d6f756e742073686f756c642062652067726561746572207468616e203021600082015250565b7f4f776e61626c653a206e6577206f776e657220697320746865207a65726f206160008201527f6464726573730000000000000000000000000000000000000000000000000000602082015250565b7f43616e74207769746864726177206465706f736974656420746f6b656e730000600082015250565b7f576974686472617720616d6f756e7420657863656564732062616c616e636500600082015250565b7f416464726573733a20696e73756666696369656e742062616c616e636520666f60008201527f722063616c6c0000000000000000000000000000000000000000000000000000602082015250565b7f4f776e61626c653a2063616c6c6572206973206e6f7420746865206f776e6572600082015250565b7f416464726573733a2063616c6c20746f206e6f6e2d636f6e7472616374000000600082015250565b7f4c6f636b20697320616374697665000000000000000000000000000000000000600082015250565b7f5361666545524332303a204552433230206f7065726174696f6e20646964206e60008201527f6f74207375636365656400000000000000000000000000000000000000000000602082015250565b7f5265656e7472616e637947756172643a207265656e7472616e742063616c6c00600082015250565b61215b81611dfd565b811461216657600080fd5b50565b61217281611e0f565b811461217d57600080fd5b50565b61218981611e1b565b811461219457600080fd5b50565b6121a081611e4d565b81146121ab57600080fd5b5056fea2646970667358221220f8f1685ca641114f887cc61f0c39f6bdd9223e8c117471c8e50994b8fae5643864736f6c63430008010033",
  "linkReferences": {},
  "deployedLinkReferences": {}
}